{
  "_format": "hh-sol-artifact-1",
  "contractName": "Token",
  "sourceName": "contracts/Token.sol",
  "abi": [
    {
      "inputs": [
        {
          "internalType": "address",
          "name": "target",
          "type": "address"
        }
      ],
      "name": "AddressEmptyCode",
      "type": "error"
    },
    {
      "inputs": [
        {
          "internalType": "address",
          "name": "account",
          "type": "address"
        }
      ],
      "name": "AddressInsufficientBalance",
      "type": "error"
    },
    {
      "inputs": [],
      "name": "ECDSAInvalidSignature",
      "type": "error"
    },
    {
      "inputs": [
        {
          "internalType": "uint256",
          "name": "length",
          "type": "uint256"
        }
      ],
      "name": "ECDSAInvalidSignatureLength",
      "type": "error"
    },
    {
      "inputs": [
        {
          "internalType": "bytes32",
          "name": "s",
          "type": "bytes32"
        }
      ],
      "name": "ECDSAInvalidSignatureS",
      "type": "error"
    },
    {
      "inputs": [
        {
          "internalType": "address",
          "name": "spender",
          "type": "address"
        },
        {
          "internalType": "uint256",
          "name": "allowance",
          "type": "uint256"
        },
        {
          "internalType": "uint256",
          "name": "needed",
          "type": "uint256"
        }
      ],
      "name": "ERC20InsufficientAllowance",
      "type": "error"
    },
    {
      "inputs": [
        {
          "internalType": "address",
          "name": "sender",
          "type": "address"
        },
        {
          "internalType": "uint256",
          "name": "balance",
          "type": "uint256"
        },
        {
          "internalType": "uint256",
          "name": "needed",
          "type": "uint256"
        }
      ],
      "name": "ERC20InsufficientBalance",
      "type": "error"
    },
    {
      "inputs": [
        {
          "internalType": "address",
          "name": "approver",
          "type": "address"
        }
      ],
      "name": "ERC20InvalidApprover",
      "type": "error"
    },
    {
      "inputs": [
        {
          "internalType": "address",
          "name": "receiver",
          "type": "address"
        }
      ],
      "name": "ERC20InvalidReceiver",
      "type": "error"
    },
    {
      "inputs": [
        {
          "internalType": "address",
          "name": "sender",
          "type": "address"
        }
      ],
      "name": "ERC20InvalidSender",
      "type": "error"
    },
    {
      "inputs": [
        {
          "internalType": "address",
          "name": "spender",
          "type": "address"
        }
      ],
      "name": "ERC20InvalidSpender",
      "type": "error"
    },
    {
      "inputs": [
        {
          "internalType": "uint256",
          "name": "deadline",
          "type": "uint256"
        }
      ],
      "name": "ERC2612ExpiredSignature",
      "type": "error"
    },
    {
      "inputs": [
        {
          "internalType": "address",
          "name": "signer",
          "type": "address"
        },
        {
          "internalType": "address",
          "name": "owner",
          "type": "address"
        }
      ],
      "name": "ERC2612InvalidSigner",
      "type": "error"
    },
    {
      "inputs": [],
      "name": "FailedInnerCall",
      "type": "error"
    },
    {
      "inputs": [
        {
          "internalType": "address",
          "name": "account",
          "type": "address"
        },
        {
          "internalType": "uint256",
          "name": "currentNonce",
          "type": "uint256"
        }
      ],
      "name": "InvalidAccountNonce",
      "type": "error"
    },
    {
      "inputs": [],
      "name": "InvalidInitialization",
      "type": "error"
    },
    {
      "inputs": [],
      "name": "NotInitializing",
      "type": "error"
    },
    {
      "inputs": [
        {
          "internalType": "address",
          "name": "owner",
          "type": "address"
        }
      ],
      "name": "OwnableInvalidOwner",
      "type": "error"
    },
    {
      "inputs": [
        {
          "internalType": "address",
          "name": "account",
          "type": "address"
        }
      ],
      "name": "OwnableUnauthorizedAccount",
      "type": "error"
    },
    {
      "inputs": [
        {
          "internalType": "address",
          "name": "token",
          "type": "address"
        }
      ],
      "name": "SafeERC20FailedOperation",
      "type": "error"
    },
    {
      "anonymous": false,
      "inputs": [
        {
          "indexed": true,
          "internalType": "address",
          "name": "owner",
          "type": "address"
        },
        {
          "indexed": true,
          "internalType": "address",
          "name": "spender",
          "type": "address"
        },
        {
          "indexed": false,
          "internalType": "uint256",
          "name": "value",
          "type": "uint256"
        }
      ],
      "name": "Approval",
      "type": "event"
    },
    {
      "anonymous": false,
      "inputs": [],
      "name": "EIP712DomainChanged",
      "type": "event"
    },
    {
      "anonymous": false,
      "inputs": [
        {
          "indexed": false,
          "internalType": "uint64",
          "name": "version",
          "type": "uint64"
        }
      ],
      "name": "Initialized",
      "type": "event"
    },
    {
      "anonymous": false,
      "inputs": [
        {
          "indexed": false,
          "internalType": "uint256",
          "name": "timestamp",
          "type": "uint256"
        },
        {
          "indexed": false,
          "internalType": "uint256",
          "name": "blockNumber",
          "type": "uint256"
        }
      ],
      "name": "LockDisabled",
      "type": "event"
    },
    {
      "anonymous": false,
      "inputs": [
        {
          "indexed": false,
          "internalType": "uint256",
          "name": "timestamp",
          "type": "uint256"
        },
        {
          "indexed": false,
          "internalType": "uint256",
          "name": "blockNumber",
          "type": "uint256"
        }
      ],
      "name": "LockEnabled",
      "type": "event"
    },
    {
      "anonymous": false,
      "inputs": [
        {
          "indexed": true,
          "internalType": "address",
          "name": "previousOwner",
          "type": "address"
        },
        {
          "indexed": true,
          "internalType": "address",
          "name": "newOwner",
          "type": "address"
        }
      ],
      "name": "OwnershipTransferred",
      "type": "event"
    },
    {
      "anonymous": false,
      "inputs": [
        {
          "indexed": true,
          "internalType": "address",
          "name": "from",
          "type": "address"
        },
        {
          "indexed": true,
          "internalType": "address",
          "name": "to",
          "type": "address"
        },
        {
          "indexed": false,
          "internalType": "uint256",
          "name": "value",
          "type": "uint256"
        }
      ],
      "name": "Transfer",
      "type": "event"
    },
    {
      "anonymous": false,
      "inputs": [
        {
          "indexed": true,
          "internalType": "address",
          "name": "from",
          "type": "address"
        },
        {
          "indexed": true,
          "internalType": "address",
          "name": "to",
          "type": "address"
        },
        {
          "indexed": false,
          "internalType": "uint256",
          "name": "value",
          "type": "uint256"
        },
        {
          "indexed": false,
          "internalType": "uint256",
          "name": "blockNumber",
          "type": "uint256"
        }
      ],
      "name": "TransferAndLock",
      "type": "event"
    },
    {
      "anonymous": false,
      "inputs": [
        {
          "indexed": true,
          "internalType": "address",
          "name": "wallet",
          "type": "address"
        },
        {
          "indexed": false,
          "internalType": "uint256",
          "name": "blockNumber",
          "type": "uint256"
        }
      ],
      "name": "UpdateLockBlock",
      "type": "event"
    },
    {
      "stateMutability": "payable",
      "type": "fallback"
    },
    {
      "inputs": [],
      "name": "DOMAIN_SEPARATOR",
      "outputs": [
        {
          "internalType": "bytes32",
          "name": "",
          "type": "bytes32"
        }
      ],
      "stateMutability": "view",
      "type": "function"
    },
    {
      "inputs": [
        {
          "internalType": "address",
          "name": "wallet",
          "type": "address"
        }
      ],
      "name": "addLockTransferAdmin",
      "outputs": [],
      "stateMutability": "nonpayable",
      "type": "function"
    },
    {
      "inputs": [
        {
          "internalType": "address",
          "name": "owner",
          "type": "address"
        },
        {
          "internalType": "address",
          "name": "spender",
          "type": "address"
        }
      ],
      "name": "allowance",
      "outputs": [
        {
          "internalType": "uint256",
          "name": "",
          "type": "uint256"
        }
      ],
      "stateMutability": "view",
      "type": "function"
    },
    {
      "inputs": [
        {
          "internalType": "address",
          "name": "spender",
          "type": "address"
        },
        {
          "internalType": "uint256",
          "name": "value",
          "type": "uint256"
        }
      ],
      "name": "approve",
      "outputs": [
        {
          "internalType": "bool",
          "name": "",
          "type": "bool"
        }
      ],
      "stateMutability": "nonpayable",
      "type": "function"
    },
    {
      "inputs": [
        {
          "internalType": "address",
          "name": "account",
          "type": "address"
        }
      ],
      "name": "balanceOf",
      "outputs": [
        {
          "internalType": "uint256",
          "name": "",
          "type": "uint256"
        }
      ],
      "stateMutability": "view",
      "type": "function"
    },
    {
      "inputs": [
        {
          "internalType": "address",
          "name": "token",
          "type": "address"
        }
      ],
      "name": "claimStuckTokens",
      "outputs": [],
      "stateMutability": "nonpayable",
      "type": "function"
    },
    {
      "inputs": [],
      "name": "decimals",
      "outputs": [
        {
          "internalType": "uint8",
          "name": "",
          "type": "uint8"
        }
      ],
      "stateMutability": "view",
      "type": "function"
    },
    {
      "inputs": [],
      "name": "disableLockPermanently",
      "outputs": [],
      "stateMutability": "nonpayable",
      "type": "function"
    },
    {
      "inputs": [],
      "name": "eip712Domain",
      "outputs": [
        {
          "internalType": "bytes1",
          "name": "fields",
          "type": "bytes1"
        },
        {
          "internalType": "string",
          "name": "name",
          "type": "string"
        },
        {
          "internalType": "string",
          "name": "version",
          "type": "string"
        },
        {
          "internalType": "uint256",
          "name": "chainId",
          "type": "uint256"
        },
        {
          "internalType": "address",
          "name": "verifyingContract",
          "type": "address"
        },
        {
          "internalType": "bytes32",
          "name": "salt",
          "type": "bytes32"
        },
        {
          "internalType": "uint256[]",
          "name": "extensions",
          "type": "uint256[]"
        }
      ],
      "stateMutability": "view",
      "type": "function"
    },
    {
      "inputs": [],
      "name": "enableLockPermanently",
      "outputs": [],
      "stateMutability": "nonpayable",
      "type": "function"
    },
    {
      "inputs": [
        {
          "internalType": "address",
          "name": "caller",
          "type": "address"
        }
      ],
      "name": "getAvailableAmount",
      "outputs": [
        {
          "internalType": "uint256",
          "name": "",
          "type": "uint256"
        },
        {
          "internalType": "uint256",
          "name": "",
          "type": "uint256"
        }
      ],
      "stateMutability": "view",
      "type": "function"
    },
    {
      "inputs": [
        {
          "internalType": "address",
          "name": "caller",
          "type": "address"
        },
        {
          "internalType": "uint16",
          "name": "index",
          "type": "uint16"
        }
      ],
      "name": "getLockAmountAndUnlockAt",
      "outputs": [
        {
          "internalType": "uint256",
          "name": "",
          "type": "uint256"
        },
        {
          "internalType": "uint256",
          "name": "",
          "type": "uint256"
        }
      ],
      "stateMutability": "view",
      "type": "function"
    },
    {
      "inputs": [
        {
          "internalType": "address",
          "name": "initialOwner",
          "type": "address"
        }
      ],
      "name": "initialize",
      "outputs": [],
      "stateMutability": "nonpayable",
      "type": "function"
    },
    {
      "inputs": [],
      "name": "isLockActive",
      "outputs": [
        {
          "internalType": "bool",
          "name": "",
          "type": "bool"
        }
      ],
      "stateMutability": "view",
      "type": "function"
    },
    {
      "inputs": [
        {
          "internalType": "uint256",
          "name": "",
          "type": "uint256"
        }
      ],
      "name": "lockTransferAdmins",
      "outputs": [
        {
          "internalType": "address",
          "name": "",
          "type": "address"
        }
      ],
      "stateMutability": "view",
      "type": "function"
    },
    {
      "inputs": [],
      "name": "name",
      "outputs": [
        {
          "internalType": "string",
          "name": "",
          "type": "string"
        }
      ],
      "stateMutability": "view",
      "type": "function"
    },
    {
      "inputs": [
        {
          "internalType": "address",
          "name": "owner",
          "type": "address"
        }
      ],
      "name": "nonces",
      "outputs": [
        {
          "internalType": "uint256",
          "name": "",
          "type": "uint256"
        }
      ],
      "stateMutability": "view",
      "type": "function"
    },
    {
      "inputs": [],
      "name": "owner",
      "outputs": [
        {
          "internalType": "address",
          "name": "",
          "type": "address"
        }
      ],
      "stateMutability": "view",
      "type": "function"
    },
    {
      "inputs": [
        {
          "internalType": "address",
          "name": "owner",
          "type": "address"
        },
        {
          "internalType": "address",
          "name": "spender",
          "type": "address"
        },
        {
          "internalType": "uint256",
          "name": "value",
          "type": "uint256"
        },
        {
          "internalType": "uint256",
          "name": "deadline",
          "type": "uint256"
        },
        {
          "internalType": "uint8",
          "name": "v",
          "type": "uint8"
        },
        {
          "internalType": "bytes32",
          "name": "r",
          "type": "bytes32"
        },
        {
          "internalType": "bytes32",
          "name": "s",
          "type": "bytes32"
        }
      ],
      "name": "permit",
      "outputs": [],
      "stateMutability": "nonpayable",
      "type": "function"
    },
    {
      "inputs": [],
      "name": "renounceOwnership",
      "outputs": [],
      "stateMutability": "nonpayable",
      "type": "function"
    },
    {
      "inputs": [],
      "name": "symbol",
      "outputs": [
        {
          "internalType": "string",
          "name": "",
          "type": "string"
        }
      ],
      "stateMutability": "view",
      "type": "function"
    },
    {
      "inputs": [],
      "name": "totalSupply",
      "outputs": [
        {
          "internalType": "uint256",
          "name": "",
          "type": "uint256"
        }
      ],
      "stateMutability": "view",
      "type": "function"
    },
    {
      "inputs": [
        {
          "internalType": "address",
          "name": "to",
          "type": "address"
        },
        {
          "internalType": "uint256",
          "name": "amount",
          "type": "uint256"
        }
      ],
      "name": "transfer",
      "outputs": [
        {
          "internalType": "bool",
          "name": "",
          "type": "bool"
        }
      ],
      "stateMutability": "nonpayable",
      "type": "function"
    },
    {
      "inputs": [
        {
          "internalType": "address",
          "name": "to",
          "type": "address"
        },
        {
          "internalType": "uint256",
          "name": "value",
          "type": "uint256"
        },
        {
          "internalType": "uint256",
          "name": "lockSeconds",
          "type": "uint256"
        }
      ],
      "name": "transferAndLock",
      "outputs": [],
      "stateMutability": "nonpayable",
      "type": "function"
    },
    {
      "inputs": [
        {
          "internalType": "address",
          "name": "from",
          "type": "address"
        },
        {
          "internalType": "address",
          "name": "to",
          "type": "address"
        },
        {
          "internalType": "uint256",
          "name": "value",
          "type": "uint256"
        }
      ],
      "name": "transferFrom",
      "outputs": [
        {
          "internalType": "bool",
          "name": "",
          "type": "bool"
        }
      ],
      "stateMutability": "nonpayable",
      "type": "function"
    },
    {
      "inputs": [
        {
          "internalType": "address",
          "name": "newOwner",
          "type": "address"
        }
      ],
      "name": "transferOwnership",
      "outputs": [],
      "stateMutability": "nonpayable",
      "type": "function"
    },
    {
      "inputs": [
        {
          "internalType": "address",
          "name": "wallet",
          "type": "address"
        },
        {
          "internalType": "uint256",
          "name": "blockNumber",
          "type": "uint256"
        }
      ],
      "name": "updateLockBlock",
      "outputs": [],
      "stateMutability": "nonpayable",
      "type": "function"
    },
    {
      "stateMutability": "payable",
      "type": "receive"
    }
  ],
  "bytecode": "0x608060405234801561001057600080fd5b50613e8b806100206000396000f3fe6080604052600436106101a05760003560e01c806384d5d944116100ec578063cf93340d1161008a578063dd62ed3e11610064578063dd62ed3e146105ec578063f2fde38b14610629578063f9d0831a14610652578063fec7115c1461067b576101a7565b8063cf93340d1461055a578063cfa6e91114610598578063d505accf146105c3576101a7565b806395d89b41116100c657806395d89b411461048c578063a9059cbb146104b7578063ab757b1a146104f4578063c4d66de814610531576101a7565b806384d5d9441461040f5780638ce81525146104385780638da5cb5b14610461576101a7565b8063313ce5671161015957806370a082311161013357806370a082311461034d578063715018a61461038a5780637ecebe00146103a157806384b0196e146103de576101a7565b8063313ce567146102e05780633644e5151461030b5780635e1ed52114610336576101a7565b806306fdde03146101a9578063095ea7b3146101d45780630e12b3231461021157806318160ddd1461023a5780631f3a71ba1461026557806323b872dd146102a3576101a7565b366101a757005b005b3480156101b557600080fd5b506101be610692565b6040516101cb9190612df6565b60405180910390f35b3480156101e057600080fd5b506101fb60048036038101906101f69190612eb1565b610733565b6040516102089190612f0c565b60405180910390f35b34801561021d57600080fd5b5061023860048036038101906102339190612eb1565b610756565b005b34801561024657600080fd5b5061024f610869565b60405161025c9190612f36565b60405180910390f35b34801561027157600080fd5b5061028c60048036038101906102879190612f51565b610881565b60405161029a929190612f7e565b60405180910390f35b3480156102af57600080fd5b506102ca60048036038101906102c59190612fa7565b610a5a565b6040516102d79190612f0c565b60405180910390f35b3480156102ec57600080fd5b506102f5610a89565b6040516103029190613016565b60405180910390f35b34801561031757600080fd5b50610320610a92565b60405161032d919061304a565b60405180910390f35b34801561034257600080fd5b5061034b610aa1565b005b34801561035957600080fd5b50610374600480360381019061036f9190612f51565b610afe565b6040516103819190612f36565b60405180910390f35b34801561039657600080fd5b5061039f610b55565b005b3480156103ad57600080fd5b506103c860048036038101906103c39190612f51565b610b69565b6040516103d59190612f36565b60405180910390f35b3480156103ea57600080fd5b506103f3610b7b565b604051610406979695949392919061316d565b60405180910390f35b34801561041b57600080fd5b50610436600480360381019061043191906131f1565b610c8d565b005b34801561044457600080fd5b5061045f600480360381019061045a9190612f51565b610eef565b005b34801561046d57600080fd5b50610476610f5d565b6040516104839190613244565b60405180910390f35b34801561049857600080fd5b506104a1610f95565b6040516104ae9190612df6565b60405180910390f35b3480156104c357600080fd5b506104de60048036038101906104d99190612eb1565b611036565b6040516104eb9190612f0c565b60405180910390f35b34801561050057600080fd5b5061051b6004803603810190610516919061325f565b61115d565b6040516105289190613244565b60405180910390f35b34801561053d57600080fd5b5061055860048036038101906105539190612f51565b61119c565b005b34801561056657600080fd5b50610581600480360381019061057c91906132c6565b6113ed565b60405161058f929190612f7e565b60405180910390f35b3480156105a457600080fd5b506105ad6114f1565b6040516105ba9190612f0c565b60405180910390f35b3480156105cf57600080fd5b506105ea60048036038101906105e5919061335e565b611502565b005b3480156105f857600080fd5b50610613600480360381019061060e9190613400565b61164a565b6040516106209190612f36565b60405180910390f35b34801561063557600080fd5b50610650600480360381019061064b9190612f51565b6116df565b005b34801561065e57600080fd5b5061067960048036038101906106749190612f51565b611765565b005b34801561068757600080fd5b506106906118a1565b005b6060600061069e6118fe565b90508060030180546106af9061346f565b80601f01602080910402602001604051908101604052809291908181526020018280546106db9061346f565b80156107285780601f106106fd57610100808354040283529160200191610728565b820191906000526020600020905b81548152906001019060200180831161070b57829003601f168201915b505050505091505090565b60008061073e611926565b905061074b81858561192e565b600191505092915050565b61075e611940565b6000600160008473ffffffffffffffffffffffffffffffffffffffff1673ffffffffffffffffffffffffffffffffffffffff168152602001908152602001600020905060005b818054905081101561081557828282815481106107c4576107c36134a0565b5b9060005260206000209060030201600001546107e091906134fe565b8282815481106107f3576107f26134a0565b5b90600052602060002090600302016002018190555080806001019150506107a4565b508273ffffffffffffffffffffffffffffffffffffffff167f113fde816619c7ec1dfb7970bac1c5466435d0db4a09ba975b14cf5bce852a488360405161085c9190612f36565b60405180910390a2505050565b6000806108746118fe565b9050806002015491505090565b6000806000600160008573ffffffffffffffffffffffffffffffffffffffff1673ffffffffffffffffffffffffffffffffffffffff16815260200190815260200160002090506000805b8280549050811015610943578281815481106108ea576108e96134a0565b5b90600052602060002090600302016002015442101561093657828181548110610916576109156134a0565b5b9060005260206000209060030201600101548261093391906134fe565b91505b80806001019150506108cb565b5060003073ffffffffffffffffffffffffffffffffffffffff166370a08231876040518263ffffffff1660e01b815260040161097f9190613244565b602060405180830381865afa15801561099c573d6000803e3d6000fd5b505050506040513d601f19601f820116820180604052508101906109c09190613547565b90506000823073ffffffffffffffffffffffffffffffffffffffff166370a08231896040518263ffffffff1660e01b81526004016109fe9190613244565b602060405180830381865afa158015610a1b573d6000803e3d6000fd5b505050506040513d601f19601f82011682018060405250810190610a3f9190613547565b610a499190613574565b905081819550955050505050915091565b600080610a65611926565b9050610a728582856119c7565b610a7d858585611a5b565b60019150509392505050565b60006012905090565b6000610a9c611b4f565b905090565b610aa9611940565b60016000806101000a81548160ff0219169083151502179055507f36f626ff436289b843a75d20dd61a7675ca89ff5930b2ba1f10dad7315ce08524243604051610af4929190612f7e565b60405180910390a1565b600080610b096118fe565b90508060000160008473ffffffffffffffffffffffffffffffffffffffff1673ffffffffffffffffffffffffffffffffffffffff16815260200190815260200160002054915050919050565b610b5d611940565b610b676000611b5e565b565b6000610b7482611c35565b9050919050565b6000606080600080600060606000610b91611c8c565b90506000801b8160000154148015610baf57506000801b8160010154145b610bee576040517f08c379a0000000000000000000000000000000000000000000000000000000008152600401610be5906135f4565b60405180910390fd5b610bf6611cb4565b610bfe611d55565b46306000801b600067ffffffffffffffff811115610c1f57610c1e613614565b5b604051908082528060200260200182016040528015610c4d5781602001602082028036833780820191505090505b507f0f0000000000000000000000000000000000000000000000000000000000000095949392919097509750975097509750975097505090919293949596565b6000610c97610f5d565b73ffffffffffffffffffffffffffffffffffffffff163373ffffffffffffffffffffffffffffffffffffffff161490506000805b6002805490508161ffff161015610d6d5760028161ffff1681548110610cf457610cf36134a0565b5b9060005260206000200160009054906101000a900473ffffffffffffffffffffffffffffffffffffffff1673ffffffffffffffffffffffffffffffffffffffff163373ffffffffffffffffffffffffffffffffffffffff1603610d5a5760019150610d6d565b8080610d6590613643565b915050610ccb565b508180610d775750805b610db6576040517f08c379a0000000000000000000000000000000000000000000000000000000008152600401610dad906136b9565b60405180910390fd5b600042905060008482610dc991906134fe565b90506000600160008973ffffffffffffffffffffffffffffffffffffffff1673ffffffffffffffffffffffffffffffffffffffff16815260200190815260200160002090508060405180606001604052808581526020018981526020018481525090806001815401808255809150506001900390600052602060002090600302016000909190919091506000820151816000015560208201518160010155604082015181600201555050610e7d8888611036565b508773ffffffffffffffffffffffffffffffffffffffff163373ffffffffffffffffffffffffffffffffffffffff167f44d8e77a775c28caeb187f3d075393023f89802855771a543607e45e1094e09c8943604051610edd929190612f7e565b60405180910390a35050505050505050565b610ef7611940565b6002819080600181540180825580915050600190039060005260206000200160009091909190916101000a81548173ffffffffffffffffffffffffffffffffffffffff021916908373ffffffffffffffffffffffffffffffffffffffff16021790555050565b600080610f68611df6565b90508060000160009054906101000a900473ffffffffffffffffffffffffffffffffffffffff1691505090565b60606000610fa16118fe565b9050806004018054610fb29061346f565b80601f0160208091040260200160405190810160405280929190818152602001828054610fde9061346f565b801561102b5780601f106110005761010080835404028352916020019161102b565b820191906000526020600020905b81548152906001019060200180831161100e57829003601f168201915b505050505091505090565b60008073ffffffffffffffffffffffffffffffffffffffff168373ffffffffffffffffffffffffffffffffffffffff160361107c576110758383611e1e565b9050611157565b600082036110955761108e8383611e1e565b9050611157565b600033905060008054906101000a900460ff1615611149576000600160008373ffffffffffffffffffffffffffffffffffffffff1673ffffffffffffffffffffffffffffffffffffffff1681526020019081526020016000208054905011156111485760006111048285611e41565b905080611146576040517f08c379a000000000000000000000000000000000000000000000000000000000815260040161113d90613725565b60405180910390fd5b505b5b6111538484611e1e565b9150505b92915050565b6002818154811061116d57600080fd5b906000526020600020016000915054906101000a900473ffffffffffffffffffffffffffffffffffffffff1681565b60006111a6611fb1565b905060008160000160089054906101000a900460ff1615905060008260000160009054906101000a900467ffffffffffffffff1690506000808267ffffffffffffffff161480156111f45750825b9050600060018367ffffffffffffffff16148015611229575060003073ffffffffffffffffffffffffffffffffffffffff163b145b905081158015611237575080155b1561126e576040517ff92ee8a900000000000000000000000000000000000000000000000000000000815260040160405180910390fd5b60018560000160006101000a81548167ffffffffffffffff021916908367ffffffffffffffff16021790555083156112be5760018560000160086101000a81548160ff0219169083151502179055505b6113326040518060400160405280600c81526020017f446563656e7472616c47505400000000000000000000000000000000000000008152506040518060400160405280600381526020017f4447430000000000000000000000000000000000000000000000000000000000815250611fd9565b61133b86611fef565b61136f611346610f5d565b61134e610a89565b600a61135a9190613878565b648bb2c9700061136a91906138c3565b612003565b60016000806101000a81548160ff02191690831515021790555083156113e55760008560000160086101000a81548160ff0219169083151502179055507fc7f505b2f371ae2175ee4913f4499e1f2633a7b5936321eed1cdaeb6115181d260016040516113dc919061395e565b60405180910390a15b505050505050565b6000808261ffff16600160008673ffffffffffffffffffffffffffffffffffffffff1673ffffffffffffffffffffffffffffffffffffffff16815260200190815260200160002080549050101561144a57600080915091506114ea565b6000600160008673ffffffffffffffffffffffffffffffffffffffff1673ffffffffffffffffffffffffffffffffffffffff1681526020019081526020016000208461ffff16815481106114a1576114a06134a0565b5b9060005260206000209060030201604051806060016040529081600082015481526020016001820154815260200160028201548152505090508060200151816040015192509250505b9250929050565b60008054906101000a900460ff1681565b8342111561154757836040517f6279130200000000000000000000000000000000000000000000000000000000815260040161153e9190612f36565b60405180910390fd5b60007f6e71edae12b1b97f4d1f60370fef10105fa2faae0126114a169c64845d6126c98888886115768c612085565b8960405160200161158c96959493929190613979565b60405160208183030381529060405280519060200120905060006115af826120ea565b905060006115bf82878787612104565b90508973ffffffffffffffffffffffffffffffffffffffff168173ffffffffffffffffffffffffffffffffffffffff161461163357808a6040517f4b800e4600000000000000000000000000000000000000000000000000000000815260040161162a9291906139da565b60405180910390fd5b61163e8a8a8a61192e565b50505050505050505050565b6000806116556118fe565b90508060010160008573ffffffffffffffffffffffffffffffffffffffff1673ffffffffffffffffffffffffffffffffffffffff16815260200190815260200160002060008473ffffffffffffffffffffffffffffffffffffffff1673ffffffffffffffffffffffffffffffffffffffff1681526020019081526020016000205491505092915050565b6116e7611940565b600073ffffffffffffffffffffffffffffffffffffffff168173ffffffffffffffffffffffffffffffffffffffff16036117595760006040517f1e4fbdf70000000000000000000000000000000000000000000000000000000081526004016117509190613244565b60405180910390fd5b61176281611b5e565b50565b61176d611940565b600073ffffffffffffffffffffffffffffffffffffffff168173ffffffffffffffffffffffffffffffffffffffff16036117ed573373ffffffffffffffffffffffffffffffffffffffff166108fc479081150290604051600060405180830381858888f193505050501580156117e7573d6000803e3d6000fd5b5061189e565b600081905060008173ffffffffffffffffffffffffffffffffffffffff166370a08231306040518263ffffffff1660e01b815260040161182d9190613244565b602060405180830381865afa15801561184a573d6000803e3d6000fd5b505050506040513d601f19601f8201168201806040525081019061186e9190613547565b905061189b33828473ffffffffffffffffffffffffffffffffffffffff166121349092919063ffffffff16565b50505b50565b6118a9611940565b60008060006101000a81548160ff0219169083151502179055507fb5e70c210d2e71a1c7a0374093a7500a98144cb3e42b1347119779fc7f6e1e7742436040516118f4929190612f7e565b60405180910390a1565b60007f52c63247e1f47db19d5ce0460030c497f067ca4cebf71ba98eeadabe20bace00905090565b600033905090565b61193b83838360016121b3565b505050565b611948611926565b73ffffffffffffffffffffffffffffffffffffffff16611966610f5d565b73ffffffffffffffffffffffffffffffffffffffff16146119c557611989611926565b6040517f118cdaa70000000000000000000000000000000000000000000000000000000081526004016119bc9190613244565b60405180910390fd5b565b60006119d3848461164a565b90507fffffffffffffffffffffffffffffffffffffffffffffffffffffffffffffffff8114611a555781811015611a45578281836040517ffb8f41b2000000000000000000000000000000000000000000000000000000008152600401611a3c93929190613a03565b60405180910390fd5b611a54848484840360006121b3565b5b50505050565b600073ffffffffffffffffffffffffffffffffffffffff168373ffffffffffffffffffffffffffffffffffffffff1603611acd5760006040517f96c6fd1e000000000000000000000000000000000000000000000000000000008152600401611ac49190613244565b60405180910390fd5b600073ffffffffffffffffffffffffffffffffffffffff168273ffffffffffffffffffffffffffffffffffffffff1603611b3f5760006040517fec442f05000000000000000000000000000000000000000000000000000000008152600401611b369190613244565b60405180910390fd5b611b4a838383612399565b505050565b6000611b596125d8565b905090565b6000611b68611df6565b905060008160000160009054906101000a900473ffffffffffffffffffffffffffffffffffffffff169050828260000160006101000a81548173ffffffffffffffffffffffffffffffffffffffff021916908373ffffffffffffffffffffffffffffffffffffffff1602179055508273ffffffffffffffffffffffffffffffffffffffff168173ffffffffffffffffffffffffffffffffffffffff167f8be0079c531659141344cd1fd0a4f28419497f9722a3daafe3b4186f6b6457e060405160405180910390a3505050565b600080611c4061263c565b90508060000160008473ffffffffffffffffffffffffffffffffffffffff1673ffffffffffffffffffffffffffffffffffffffff16815260200190815260200160002054915050919050565b60007fa16a46d94261c7517cc8ff89f61c0ce93598e3c849801011dee649a6a557d100905090565b60606000611cc0611c8c565b9050806002018054611cd19061346f565b80601f0160208091040260200160405190810160405280929190818152602001828054611cfd9061346f565b8015611d4a5780601f10611d1f57610100808354040283529160200191611d4a565b820191906000526020600020905b815481529060010190602001808311611d2d57829003601f168201915b505050505091505090565b60606000611d61611c8c565b9050806003018054611d729061346f565b80601f0160208091040260200160405190810160405280929190818152602001828054611d9e9061346f565b8015611deb5780601f10611dc057610100808354040283529160200191611deb565b820191906000526020600020905b815481529060010190602001808311611dce57829003601f168201915b505050505091505090565b60007f9016d09d72d40fdae2fd8ceac6b6234c7706214fd39c1cd1e609a0528c199300905090565b600080611e29611926565b9050611e36818585611a5b565b600191505092915050565b600080600160008573ffffffffffffffffffffffffffffffffffffffff1673ffffffffffffffffffffffffffffffffffffffff16815260200190815260200160002090506000818054905003611e9b576001915050611fab565b6000805b8280549050811015611f1757828181548110611ebe57611ebd6134a0565b5b906000526020600020906003020160020154421015611f0a57828181548110611eea57611ee96134a0565b5b90600052602060002090600302016001015482611f0791906134fe565b91505b8080600101915050611e9f565b506000813073ffffffffffffffffffffffffffffffffffffffff166370a08231886040518263ffffffff1660e01b8152600401611f549190613244565b602060405180830381865afa158015611f71573d6000803e3d6000fd5b505050506040513d601f19601f82011682018060405250810190611f959190613547565b611f9f9190613574565b90508481101593505050505b92915050565b60007ff0c57e16840df040f15088dc2f81fe391c3923bec73e23a9662efc9c229c6a00905090565b611fe1612664565b611feb82826126a4565b5050565b611ff7612664565b612000816126e1565b50565b600073ffffffffffffffffffffffffffffffffffffffff168273ffffffffffffffffffffffffffffffffffffffff16036120755760006040517fec442f0500000000000000000000000000000000000000000000000000000000815260040161206c9190613244565b60405180910390fd5b61208160008383612399565b5050565b60008061209061263c565b90508060000160008473ffffffffffffffffffffffffffffffffffffffff1673ffffffffffffffffffffffffffffffffffffffff168152602001908152602001600020600081548092919060010191905055915050919050565b60006120fd6120f7611b4f565b83612767565b9050919050565b600080600080612116888888886127a8565b925092509250612126828261289c565b829350505050949350505050565b6121ae838473ffffffffffffffffffffffffffffffffffffffff1663a9059cbb8585604051602401612167929190613a3a565b604051602081830303815290604052915060e01b6020820180517bffffffffffffffffffffffffffffffffffffffffffffffffffffffff8381831617835250505050612a00565b505050565b60006121bd6118fe565b9050600073ffffffffffffffffffffffffffffffffffffffff168573ffffffffffffffffffffffffffffffffffffffff16036122315760006040517fe602df050000000000000000000000000000000000000000000000000000000081526004016122289190613244565b60405180910390fd5b600073ffffffffffffffffffffffffffffffffffffffff168473ffffffffffffffffffffffffffffffffffffffff16036122a35760006040517f94280d6200000000000000000000000000000000000000000000000000000000815260040161229a9190613244565b60405180910390fd5b828160010160008773ffffffffffffffffffffffffffffffffffffffff1673ffffffffffffffffffffffffffffffffffffffff16815260200190815260200160002060008673ffffffffffffffffffffffffffffffffffffffff1673ffffffffffffffffffffffffffffffffffffffff168152602001908152602001600020819055508115612392578373ffffffffffffffffffffffffffffffffffffffff168573ffffffffffffffffffffffffffffffffffffffff167f8c5be1e5ebec7d5bd14f71427d1e84f3dd0314c0f7b2291e5b200ac8c7c3b925856040516123899190612f36565b60405180910390a35b5050505050565b60006123a36118fe565b9050600073ffffffffffffffffffffffffffffffffffffffff168473ffffffffffffffffffffffffffffffffffffffff16036123f957818160020160008282546123ed91906134fe565b925050819055506124d2565b60008160000160008673ffffffffffffffffffffffffffffffffffffffff1673ffffffffffffffffffffffffffffffffffffffff16815260200190815260200160002054905082811015612488578481846040517fe450d38c00000000000000000000000000000000000000000000000000000000815260040161247f93929190613a03565b60405180910390fd5b8281038260000160008773ffffffffffffffffffffffffffffffffffffffff1673ffffffffffffffffffffffffffffffffffffffff16815260200190815260200160002081905550505b600073ffffffffffffffffffffffffffffffffffffffff168373ffffffffffffffffffffffffffffffffffffffff160361251d5781816002016000828254039250508190555061256d565b818160000160008573ffffffffffffffffffffffffffffffffffffffff1673ffffffffffffffffffffffffffffffffffffffff168152602001908152602001600020600082825401925050819055505b8273ffffffffffffffffffffffffffffffffffffffff168473ffffffffffffffffffffffffffffffffffffffff167fddf252ad1be2c89b69c2b068fc378daa952ba7f163c4a11628f55a4df523b3ef846040516125ca9190612f36565b60405180910390a350505050565b60007f8b73c3c69bb8fe3d512ecc4cf759cc79239f7b179b0ffacaa9a75d522b39400f612603612a97565b61260b612b13565b4630604051602001612621959493929190613a63565b60405160208183030381529060405280519060200120905090565b60007f5ab42ced628888259c08ac98db1eb0cf702fc1501344311d8b100cd1bfe4bb00905090565b61266c612b8f565b6126a2576040517fd7e6bcf800000000000000000000000000000000000000000000000000000000815260040160405180910390fd5b565b6126ac612664565b60006126b66118fe565b9050828160030190816126c99190613c58565b50818160040190816126db9190613c58565b50505050565b6126e9612664565b600073ffffffffffffffffffffffffffffffffffffffff168173ffffffffffffffffffffffffffffffffffffffff160361275b5760006040517f1e4fbdf70000000000000000000000000000000000000000000000000000000081526004016127529190613244565b60405180910390fd5b61276481611b5e565b50565b60006040517f190100000000000000000000000000000000000000000000000000000000000081528360028201528260228201526042812091505092915050565b60008060007f7fffffffffffffffffffffffffffffff5d576e7357a4501ddfe92f46681b20a08460001c11156127e8576000600385925092509250612892565b60006001888888886040516000815260200160405260405161280d9493929190613d2a565b6020604051602081039080840390855afa15801561282f573d6000803e3d6000fd5b505050602060405103519050600073ffffffffffffffffffffffffffffffffffffffff168173ffffffffffffffffffffffffffffffffffffffff160361288357600060016000801b93509350935050612892565b8060008060001b935093509350505b9450945094915050565b600060038111156128b0576128af613d6f565b5b8260038111156128c3576128c2613d6f565b5b03156129fc57600160038111156128dd576128dc613d6f565b5b8260038111156128f0576128ef613d6f565b5b03612927576040517ff645eedf00000000000000000000000000000000000000000000000000000000815260040160405180910390fd5b6002600381111561293b5761293a613d6f565b5b82600381111561294e5761294d613d6f565b5b03612993578060001c6040517ffce698f700000000000000000000000000000000000000000000000000000000815260040161298a9190612f36565b60405180910390fd5b6003808111156129a6576129a5613d6f565b5b8260038111156129b9576129b8613d6f565b5b036129fb57806040517fd78bce0c0000000000000000000000000000000000000000000000000000000081526004016129f2919061304a565b60405180910390fd5b5b5050565b6000612a2b828473ffffffffffffffffffffffffffffffffffffffff16612baf90919063ffffffff16565b90506000815114158015612a50575080806020019051810190612a4e9190613dca565b155b15612a9257826040517f5274afe7000000000000000000000000000000000000000000000000000000008152600401612a899190613244565b60405180910390fd5b505050565b600080612aa2611c8c565b90506000612aae611cb4565b9050600081511115612acb57808051906020012092505050612b10565b6000826000015490506000801b8114612ae957809350505050612b10565b7fc5d2460186f7233c927e7db2dcc703c0e500b653ca82273b7bfad8045d85a47093505050505b90565b600080612b1e611c8c565b90506000612b2a611d55565b9050600081511115612b4757808051906020012092505050612b8c565b6000826001015490506000801b8114612b6557809350505050612b8c565b7fc5d2460186f7233c927e7db2dcc703c0e500b653ca82273b7bfad8045d85a47093505050505b90565b6000612b99611fb1565b60000160089054906101000a900460ff16905090565b6060612bbd83836000612bc5565b905092915050565b606081471015612c0c57306040517fcd786059000000000000000000000000000000000000000000000000000000008152600401612c039190613244565b60405180910390fd5b6000808573ffffffffffffffffffffffffffffffffffffffff168486604051612c359190613e3e565b60006040518083038185875af1925050503d8060008114612c72576040519150601f19603f3d011682016040523d82523d6000602084013e612c77565b606091505b5091509150612c87868383612c92565b925050509392505050565b606082612ca757612ca282612d21565b612d19565b60008251148015612ccf575060008473ffffffffffffffffffffffffffffffffffffffff163b145b15612d1157836040517f9996b315000000000000000000000000000000000000000000000000000000008152600401612d089190613244565b60405180910390fd5b819050612d1a565b5b9392505050565b600081511115612d345780518082602001fd5b6040517f1425ea4200000000000000000000000000000000000000000000000000000000815260040160405180910390fd5b600081519050919050565b600082825260208201905092915050565b60005b83811015612da0578082015181840152602081019050612d85565b60008484015250505050565b6000601f19601f8301169050919050565b6000612dc882612d66565b612dd28185612d71565b9350612de2818560208601612d82565b612deb81612dac565b840191505092915050565b60006020820190508181036000830152612e108184612dbd565b905092915050565b600080fd5b600073ffffffffffffffffffffffffffffffffffffffff82169050919050565b6000612e4882612e1d565b9050919050565b612e5881612e3d565b8114612e6357600080fd5b50565b600081359050612e7581612e4f565b92915050565b6000819050919050565b612e8e81612e7b565b8114612e9957600080fd5b50565b600081359050612eab81612e85565b92915050565b60008060408385031215612ec857612ec7612e18565b5b6000612ed685828601612e66565b9250506020612ee785828601612e9c565b9150509250929050565b60008115159050919050565b612f0681612ef1565b82525050565b6000602082019050612f216000830184612efd565b92915050565b612f3081612e7b565b82525050565b6000602082019050612f4b6000830184612f27565b92915050565b600060208284031215612f6757612f66612e18565b5b6000612f7584828501612e66565b91505092915050565b6000604082019050612f936000830185612f27565b612fa06020830184612f27565b9392505050565b600080600060608486031215612fc057612fbf612e18565b5b6000612fce86828701612e66565b9350506020612fdf86828701612e66565b9250506040612ff086828701612e9c565b9150509250925092565b600060ff82169050919050565b61301081612ffa565b82525050565b600060208201905061302b6000830184613007565b92915050565b6000819050919050565b61304481613031565b82525050565b600060208201905061305f600083018461303b565b92915050565b60007fff0000000000000000000000000000000000000000000000000000000000000082169050919050565b61309a81613065565b82525050565b6130a981612e3d565b82525050565b600081519050919050565b600082825260208201905092915050565b6000819050602082019050919050565b6130e481612e7b565b82525050565b60006130f683836130db565b60208301905092915050565b6000602082019050919050565b600061311a826130af565b61312481856130ba565b935061312f836130cb565b8060005b8381101561316057815161314788826130ea565b975061315283613102565b925050600181019050613133565b5085935050505092915050565b600060e082019050613182600083018a613091565b81810360208301526131948189612dbd565b905081810360408301526131a88188612dbd565b90506131b76060830187612f27565b6131c460808301866130a0565b6131d160a083018561303b565b81810360c08301526131e3818461310f565b905098975050505050505050565b60008060006060848603121561320a57613209612e18565b5b600061321886828701612e66565b935050602061322986828701612e9c565b925050604061323a86828701612e9c565b9150509250925092565b600060208201905061325960008301846130a0565b92915050565b60006020828403121561327557613274612e18565b5b600061328384828501612e9c565b91505092915050565b600061ffff82169050919050565b6132a38161328c565b81146132ae57600080fd5b50565b6000813590506132c08161329a565b92915050565b600080604083850312156132dd576132dc612e18565b5b60006132eb85828601612e66565b92505060206132fc858286016132b1565b9150509250929050565b61330f81612ffa565b811461331a57600080fd5b50565b60008135905061332c81613306565b92915050565b61333b81613031565b811461334657600080fd5b50565b60008135905061335881613332565b92915050565b600080600080600080600060e0888a03121561337d5761337c612e18565b5b600061338b8a828b01612e66565b975050602061339c8a828b01612e66565b96505060406133ad8a828b01612e9c565b95505060606133be8a828b01612e9c565b94505060806133cf8a828b0161331d565b93505060a06133e08a828b01613349565b92505060c06133f18a828b01613349565b91505092959891949750929550565b6000806040838503121561341757613416612e18565b5b600061342585828601612e66565b925050602061343685828601612e66565b9150509250929050565b7f4e487b7100000000000000000000000000000000000000000000000000000000600052602260045260246000fd5b6000600282049050600182168061348757607f821691505b60208210810361349a57613499613440565b5b50919050565b7f4e487b7100000000000000000000000000000000000000000000000000000000600052603260045260246000fd5b7f4e487b7100000000000000000000000000000000000000000000000000000000600052601160045260246000fd5b600061350982612e7b565b915061351483612e7b565b925082820190508082111561352c5761352b6134cf565b5b92915050565b60008151905061354181612e85565b92915050565b60006020828403121561355d5761355c612e18565b5b600061356b84828501613532565b91505092915050565b600061357f82612e7b565b915061358a83612e7b565b92508282039050818111156135a2576135a16134cf565b5b92915050565b7f4549503731323a20556e696e697469616c697a65640000000000000000000000600082015250565b60006135de601583612d71565b91506135e9826135a8565b602082019050919050565b6000602082019050818103600083015261360d816135d1565b9050919050565b7f4e487b7100000000000000000000000000000000000000000000000000000000600052604160045260246000fd5b600061364e8261328c565b915061ffff8203613662576136616134cf565b5b600182019050919050565b7f6e6f74206f776e6572206f72206c6f636b207472616e736665722061646d696e600082015250565b60006136a3602083612d71565b91506136ae8261366d565b602082019050919050565b600060208201905081810360008301526136d281613696565b9050919050565b7f77616c6c6574206973206c6f636b656400000000000000000000000000000000600082015250565b600061370f601083612d71565b915061371a826136d9565b602082019050919050565b6000602082019050818103600083015261373e81613702565b9050919050565b60008160011c9050919050565b6000808291508390505b600185111561379c57808604811115613778576137776134cf565b5b60018516156137875780820291505b808102905061379585613745565b945061375c565b94509492505050565b6000826137b55760019050613871565b816137c35760009050613871565b81600181146137d957600281146137e357613812565b6001915050613871565b60ff8411156137f5576137f46134cf565b5b8360020a91508482111561380c5761380b6134cf565b5b50613871565b5060208310610133831016604e8410600b84101617156138475782820a905083811115613842576138416134cf565b5b613871565b6138548484846001613752565b9250905081840481111561386b5761386a6134cf565b5b81810290505b9392505050565b600061388382612e7b565b915061388e83612ffa565b92506138bb7fffffffffffffffffffffffffffffffffffffffffffffffffffffffffffffffff84846137a5565b905092915050565b60006138ce82612e7b565b91506138d983612e7b565b92508282026138e781612e7b565b915082820484148315176138fe576138fd6134cf565b5b5092915050565b6000819050919050565b600067ffffffffffffffff82169050919050565b6000819050919050565b600061394861394361393e84613905565b613923565b61390f565b9050919050565b6139588161392d565b82525050565b6000602082019050613973600083018461394f565b92915050565b600060c08201905061398e600083018961303b565b61399b60208301886130a0565b6139a860408301876130a0565b6139b56060830186612f27565b6139c26080830185612f27565b6139cf60a0830184612f27565b979650505050505050565b60006040820190506139ef60008301856130a0565b6139fc60208301846130a0565b9392505050565b6000606082019050613a1860008301866130a0565b613a256020830185612f27565b613a326040830184612f27565b949350505050565b6000604082019050613a4f60008301856130a0565b613a5c6020830184612f27565b9392505050565b600060a082019050613a78600083018861303b565b613a85602083018761303b565b613a92604083018661303b565b613a9f6060830185612f27565b613aac60808301846130a0565b9695505050505050565b60008190508160005260206000209050919050565b60006020601f8301049050919050565b600082821b905092915050565b600060088302613b187fffffffffffffffffffffffffffffffffffffffffffffffffffffffffffffffff82613adb565b613b228683613adb565b95508019841693508086168417925050509392505050565b6000613b55613b50613b4b84612e7b565b613923565b612e7b565b9050919050565b6000819050919050565b613b6f83613b3a565b613b83613b7b82613b5c565b848454613ae8565b825550505050565b600090565b613b98613b8b565b613ba3818484613b66565b505050565b5b81811015613bc757613bbc600082613b90565b600181019050613ba9565b5050565b601f821115613c0c57613bdd81613ab6565b613be684613acb565b81016020851015613bf5578190505b613c09613c0185613acb565b830182613ba8565b50505b505050565b600082821c905092915050565b6000613c2f60001984600802613c11565b1980831691505092915050565b6000613c488383613c1e565b9150826002028217905092915050565b613c6182612d66565b67ffffffffffffffff811115613c7a57613c79613614565b5b613c84825461346f565b613c8f828285613bcb565b600060209050601f831160018114613cc25760008415613cb0578287015190505b613cba8582613c3c565b865550613d22565b601f198416613cd086613ab6565b60005b82811015613cf857848901518255600182019150602085019450602081019050613cd3565b86831015613d155784890151613d11601f891682613c1e565b8355505b6001600288020188555050505b505050505050565b6000608082019050613d3f600083018761303b565b613d4c6020830186613007565b613d59604083018561303b565b613d66606083018461303b565b95945050505050565b7f4e487b7100000000000000000000000000000000000000000000000000000000600052602160045260246000fd5b613da781612ef1565b8114613db257600080fd5b50565b600081519050613dc481613d9e565b92915050565b600060208284031215613de057613ddf612e18565b5b6000613dee84828501613db5565b91505092915050565b600081519050919050565b600081905092915050565b6000613e1882613df7565b613e228185613e02565b9350613e32818560208601612d82565b80840191505092915050565b6000613e4a8284613e0d565b91508190509291505056fea2646970667358221220a88327a39c43c4d8e73fd3809e66c11163ca19dc2414d54475c46d66b7271e3864736f6c63430008170033",
  "linkReferences": {},
  "deployedLinkReferences": {}
}